{
  "contractName": "RawMaterialLot",
  "abi": [
    {
      "inputs": [],
      "payable": false,
      "stateMutability": "nonpayable",
      "type": "constructor"
    },
    {
      "anonymous": false,
      "inputs": [
        {
          "indexed": false,
          "internalType": "string",
          "name": "lotName",
          "type": "string"
        },
        {
          "indexed": false,
          "internalType": "uint256",
          "name": "quantity",
          "type": "uint256"
        },
        {
          "indexed": false,
          "internalType": "string",
          "name": "expirationDate",
          "type": "string"
        },
        {
          "indexed": false,
          "internalType": "string",
          "name": "certification",
          "type": "string"
        },
        {
          "indexed": false,
          "internalType": "uint256",
          "name": "temperature",
          "type": "uint256"
        },
        {
          "indexed": false,
          "internalType": "uint256",
          "name": "humidity",
          "type": "uint256"
        }
      ],
      "name": "LotAdded",
      "type": "event"
    },
    {
      "constant": true,
      "inputs": [
        {
          "internalType": "uint256",
          "name": "",
          "type": "uint256"
        }
      ],
      "name": "lots",
      "outputs": [
        {
          "internalType": "string",
          "name": "lotName",
          "type": "string"
        },
        {
          "internalType": "uint256",
          "name": "quantity",
          "type": "uint256"
        },
        {
          "internalType": "string",
          "name": "expirationDate",
          "type": "string"
        },
        {
          "internalType": "string",
          "name": "certification",
          "type": "string"
        },
        {
          "internalType": "uint256",
          "name": "temperature",
          "type": "uint256"
        },
        {
          "internalType": "uint256",
          "name": "humidity",
          "type": "uint256"
        }
      ],
      "payable": false,
      "stateMutability": "view",
      "type": "function"
    },
    {
      "constant": true,
      "inputs": [],
      "name": "owner",
      "outputs": [
        {
          "internalType": "address",
          "name": "",
          "type": "address"
        }
      ],
      "payable": false,
      "stateMutability": "view",
      "type": "function"
    },
    {
      "constant": false,
      "inputs": [
        {
          "internalType": "string",
          "name": "_lotName",
          "type": "string"
        },
        {
          "internalType": "uint256",
          "name": "_quantity",
          "type": "uint256"
        },
        {
          "internalType": "string",
          "name": "_expirationDate",
          "type": "string"
        },
        {
          "internalType": "string",
          "name": "_certification",
          "type": "string"
        },
        {
          "internalType": "uint256",
          "name": "_temperature",
          "type": "uint256"
        },
        {
          "internalType": "uint256",
          "name": "_humidity",
          "type": "uint256"
        }
      ],
      "name": "addLot",
      "outputs": [],
      "payable": false,
      "stateMutability": "nonpayable",
      "type": "function"
    },
    {
      "constant": true,
      "inputs": [],
      "name": "getLotCount",
      "outputs": [
        {
          "internalType": "uint256",
          "name": "",
          "type": "uint256"
        }
      ],
      "payable": false,
      "stateMutability": "view",
      "type": "function"
    },
    {
      "constant": true,
      "inputs": [
        {
          "internalType": "uint256",
          "name": "index",
          "type": "uint256"
        }
      ],
      "name": "getLot",
      "outputs": [
        {
          "internalType": "string",
          "name": "lotName",
          "type": "string"
        },
        {
          "internalType": "uint256",
          "name": "quantity",
          "type": "uint256"
        },
        {
          "internalType": "string",
          "name": "expirationDate",
          "type": "string"
        },
        {
          "internalType": "string",
          "name": "certification",
          "type": "string"
        },
        {
          "internalType": "uint256",
          "name": "temperature",
          "type": "uint256"
        },
        {
          "internalType": "uint256",
          "name": "humidity",
          "type": "uint256"
        }
      ],
      "payable": false,
      "stateMutability": "view",
      "type": "function"
    }
  ],
  "bytecode": "0x608060405234801561001057600080fd5b5033600160006101000a81548173ffffffffffffffffffffffffffffffffffffffff021916908373ffffffffffffffffffffffffffffffffffffffff160217905550610e35806100616000396000f3fe608060405234801561001057600080fd5b50600436106100575760003560e01c80635e58d6a71461005c5780638da5cb5b1461007a57806399eb0fde146100c4578063ab995d12146102cb578063f1648e841461045f575b600080fd5b6100646105f3565b6040518082815260200191505060405180910390f35b6100826105ff565b604051808273ffffffffffffffffffffffffffffffffffffffff1673ffffffffffffffffffffffffffffffffffffffff16815260200191505060405180910390f35b6102c9600480360360c08110156100da57600080fd5b81019080803590602001906401000000008111156100f757600080fd5b82018360208201111561010957600080fd5b8035906020019184600183028401116401000000008311171561012b57600080fd5b91908080601f016020809104026020016040519081016040528093929190818152602001838380828437600081840152601f19601f820116905080830192505050505050509192919290803590602001909291908035906020019064010000000081111561019857600080fd5b8201836020820111156101aa57600080fd5b803590602001918460018302840111640100000000831117156101cc57600080fd5b91908080601f016020809104026020016040519081016040528093929190818152602001838380828437600081840152601f19601f8201169050808301925050505050505091929192908035906020019064010000000081111561022f57600080fd5b82018360208201111561024157600080fd5b8035906020019184600183028401116401000000008311171561026357600080fd5b91908080601f016020809104026020016040519081016040528093929190818152602001838380828437600081840152601f19601f8201169050808301925050505050505091929192908035906020019092919080359060200190929190505050610625565b005b6102f7600480360360208110156102e157600080fd5b8101908080359060200190929190505050610899565b6040518080602001878152602001806020018060200186815260200185815260200184810384528a818151815260200191508051906020019080838360005b83811015610351578082015181840152602081019050610336565b50505050905090810190601f16801561037e5780820380516001836020036101000a031916815260200191505b50848103835288818151815260200191508051906020019080838360005b838110156103b757808201518184015260208101905061039c565b50505050905090810190601f1680156103e45780820380516001836020036101000a031916815260200191505b50848103825287818151815260200191508051906020019080838360005b8381101561041d578082015181840152602081019050610402565b50505050905090810190601f16801561044a5780820380516001836020036101000a031916815260200191505b50995050505050505050505060405180910390f35b61048b6004803603602081101561047557600080fd5b8101908080359060200190929190505050610b14565b6040518080602001878152602001806020018060200186815260200185815260200184810384528a818151815260200191508051906020019080838360005b838110156104e55780820151818401526020810190506104ca565b50505050905090810190601f1680156105125780820380516001836020036101000a031916815260200191505b50848103835288818151815260200191508051906020019080838360005b8381101561054b578082015181840152602081019050610530565b50505050905090810190601f1680156105785780820380516001836020036101000a031916815260200191505b50848103825287818151815260200191508051906020019080838360005b838110156105b1578082015181840152602081019050610596565b50505050905090810190601f1680156105de5780820380516001836020036101000a031916815260200191505b50995050505050505050505060405180910390f35b60008080549050905090565b600160009054906101000a900473ffffffffffffffffffffffffffffffffffffffff1681565b61062d610d25565b6040518060c001604052808881526020018781526020018681526020018581526020018481526020018381525090506000819080600181540180825580915050906001820390600052602060002090600602016000909192909190915060008201518160000190805190602001906106a6929190610d5b565b506020820151816001015560408201518160020190805190602001906106cd929190610d5b565b5060608201518160030190805190602001906106ea929190610d5b565b506080820151816004015560a082015181600501555050507f1ac1c64ec5703c495eef36621412c7048470981bc92484c18b74feaa3794e8128787878787876040518080602001878152602001806020018060200186815260200185815260200184810384528a818151815260200191508051906020019080838360005b83811015610783578082015181840152602081019050610768565b50505050905090810190601f1680156107b05780820380516001836020036101000a031916815260200191505b50848103835288818151815260200191508051906020019080838360005b838110156107e95780820151818401526020810190506107ce565b50505050905090810190601f1680156108165780820380516001836020036101000a031916815260200191505b50848103825287818151815260200191508051906020019080838360005b8381101561084f578082015181840152602081019050610834565b50505050905090810190601f16801561087c5780820380516001836020036101000a031916815260200191505b50995050505050505050505060405180910390a150505050505050565b606060006060806000806108ab610d25565b600088815481106108b857fe5b90600052602060002090600602016040518060c0016040529081600082018054600181600116156101000203166002900480601f01602080910402602001604051908101604052809291908181526020018280546001816001161561010002031660029004801561096a5780601f1061093f5761010080835404028352916020019161096a565b820191906000526020600020905b81548152906001019060200180831161094d57829003601f168201915b5050505050815260200160018201548152602001600282018054600181600116156101000203166002900480601f016020809104026020016040519081016040528092919081815260200182805460018160011615610100020316600290048015610a165780601f106109eb57610100808354040283529160200191610a16565b820191906000526020600020905b8154815290600101906020018083116109f957829003601f168201915b50505050508152602001600382018054600181600116156101000203166002900480601f016020809104026020016040519081016040528092919081815260200182805460018160011615610100020316600290048015610ab85780601f10610a8d57610100808354040283529160200191610ab8565b820191906000526020600020905b815481529060010190602001808311610a9b57829003601f168201915b50505050508152602001600482015481526020016005820154815250509050806000015181602001518260400151836060015184608001518560a001518595508393508292509650965096509650965096505091939550919395565b60008181548110610b2157fe5b9060005260206000209060060201600091509050806000018054600181600116156101000203166002900480601f016020809104026020016040519081016040528092919081815260200182805460018160011615610100020316600290048015610bcd5780601f10610ba257610100808354040283529160200191610bcd565b820191906000526020600020905b815481529060010190602001808311610bb057829003601f168201915b505050505090806001015490806002018054600181600116156101000203166002900480601f016020809104026020016040519081016040528092919081815260200182805460018160011615610100020316600290048015610c715780601f10610c4657610100808354040283529160200191610c71565b820191906000526020600020905b815481529060010190602001808311610c5457829003601f168201915b505050505090806003018054600181600116156101000203166002900480601f016020809104026020016040519081016040528092919081815260200182805460018160011615610100020316600290048015610d0f5780601f10610ce457610100808354040283529160200191610d0f565b820191906000526020600020905b815481529060010190602001808311610cf257829003601f168201915b5050505050908060040154908060050154905086565b6040518060c001604052806060815260200160008152602001606081526020016060815260200160008152602001600081525090565b828054600181600116156101000203166002900490600052602060002090601f016020900481019282601f10610d9c57805160ff1916838001178555610dca565b82800160010185558215610dca579182015b82811115610dc9578251825591602001919060010190610dae565b5b509050610dd79190610ddb565b5090565b610dfd91905b80821115610df9576000816000905550600101610de1565b5090565b9056fea265627a7a72315820427a7bf39003bab667318bede55141ff0e7c747e04ab700688c29542b5a43d2e64736f6c63430005100032",
  "source": "// SPDX-License-Identifier: MIT\r\npragma solidity >=0.4.22 <0.9.0;\r\n\r\ncontract RawMaterialLot {\r\n    struct Lot {\r\n        string lotName;\r\n        uint quantity;\r\n        string expirationDate;\r\n        string certification;\r\n        uint temperature;\r\n        uint humidity;\r\n    }\r\n\r\n    Lot[] public lots;\r\n    address public owner;\r\n\r\n    event LotAdded(\r\n        string lotName,\r\n        uint quantity,\r\n        string expirationDate,\r\n        string certification,\r\n        uint temperature,\r\n        uint humidity\r\n    );\r\n\r\n    // Add visibility to the constructor\r\n    constructor() public {\r\n        owner = msg.sender;\r\n    }\r\n\r\n    function addLot(\r\n        string memory _lotName,\r\n        uint _quantity,\r\n        string memory _expirationDate,\r\n        string memory _certification,\r\n        uint _temperature,\r\n        uint _humidity\r\n    ) public {\r\n        Lot memory newLot = Lot({\r\n            lotName: _lotName,\r\n            quantity: _quantity,\r\n            expirationDate: _expirationDate,\r\n            certification: _certification,\r\n            temperature: _temperature,\r\n            humidity: _humidity\r\n        });\r\n\r\n        lots.push(newLot);\r\n        emit LotAdded(_lotName, _quantity, _expirationDate, _certification, _temperature, _humidity);\r\n    }\r\n\r\n    function getLotCount() public view returns (uint) {\r\n        return lots.length;\r\n    }\r\n\r\n    function getLot(uint index) public view returns (\r\n        string memory lotName,\r\n        uint quantity,\r\n        string memory expirationDate,\r\n        string memory certification,\r\n        uint temperature,\r\n        uint humidity\r\n    ) {\r\n        Lot memory lot = lots[index];\r\n        return (\r\n            lot.lotName,\r\n            lot.quantity,\r\n            lot.expirationDate,\r\n            lot.certification,\r\n            lot.temperature,\r\n            lot.humidity\r\n        );\r\n    }\r\n}\r\n",
  "sourcePath": "C:\\Users\\Administrateur\\Desktop\\Blockchain\\contracts\\RawMaterialLot.sol",
  "compiler": {
    "name": "solc",
    "version": "0.5.16+commit.9c3226ce.Emscripten.clang"
  },
  "schemaVersion": "3.4.16",
  "updatedAt": "2025-03-09T04:11:18.627Z",
  "networkType": "ethereum",
  "devdoc": {
    "methods": {}
  },
  "userdoc": {
    "methods": {}
  }
}