{
  "contractName": "Medecin",
  "abi": [
    {
      "anonymous": false,
      "inputs": [
        {
          "indexed": true,
          "internalType": "string",
          "name": "boxId",
          "type": "string"
        },
        {
          "indexed": false,
          "internalType": "uint256",
          "name": "lotId",
          "type": "uint256"
        },
        {
          "indexed": false,
          "internalType": "uint256",
          "name": "medicamentCount",
          "type": "uint256"
        }
      ],
      "name": "BoxAssembled",
      "type": "event"
    },
    {
      "anonymous": false,
      "inputs": [
        {
          "indexed": true,
          "internalType": "string",
          "name": "iotId",
          "type": "string"
        },
        {
          "indexed": true,
          "internalType": "string",
          "name": "boxId",
          "type": "string"
        },
        {
          "indexed": false,
          "internalType": "uint256",
          "name": "timestamp",
          "type": "uint256"
        }
      ],
      "name": "BoxAssignedToIoT",
      "type": "event"
    },
    {
      "anonymous": false,
      "inputs": [
        {
          "indexed": true,
          "internalType": "string",
          "name": "iotId",
          "type": "string"
        },
        {
          "indexed": false,
          "internalType": "string",
          "name": "medicamentId",
          "type": "string"
        },
        {
          "indexed": false,
          "internalType": "uint256",
          "name": "timestamp",
          "type": "uint256"
        }
      ],
      "name": "EnvironmentalDataRecorded",
      "type": "event"
    },
    {
      "anonymous": false,
      "inputs": [
        {
          "indexed": true,
          "internalType": "uint256",
          "name": "lotId",
          "type": "uint256"
        },
        {
          "indexed": false,
          "internalType": "string",
          "name": "nomMedicament",
          "type": "string"
        },
        {
          "indexed": false,
          "internalType": "uint256",
          "name": "timestamp",
          "type": "uint256"
        }
      ],
      "name": "LotCree",
      "type": "event"
    },
    {
      "anonymous": false,
      "inputs": [
        {
          "indexed": true,
          "internalType": "string",
          "name": "medicamentId",
          "type": "string"
        },
        {
          "indexed": false,
          "internalType": "uint256",
          "name": "lotId",
          "type": "uint256"
        }
      ],
      "name": "MedicamentCreated",
      "type": "event"
    },
    {
      "inputs": [
        {
          "internalType": "uint256",
          "name": "",
          "type": "uint256"
        }
      ],
      "name": "allBoxIds",
      "outputs": [
        {
          "internalType": "string",
          "name": "",
          "type": "string"
        }
      ],
      "stateMutability": "view",
      "type": "function",
      "constant": true
    },
    {
      "inputs": [
        {
          "internalType": "string",
          "name": "",
          "type": "string"
        }
      ],
      "name": "boxToIot",
      "outputs": [
        {
          "internalType": "string",
          "name": "",
          "type": "string"
        }
      ],
      "stateMutability": "view",
      "type": "function",
      "constant": true
    },
    {
      "inputs": [
        {
          "internalType": "string",
          "name": "",
          "type": "string"
        },
        {
          "internalType": "uint256",
          "name": "",
          "type": "uint256"
        }
      ],
      "name": "boxToMedicaments",
      "outputs": [
        {
          "internalType": "string",
          "name": "",
          "type": "string"
        }
      ],
      "stateMutability": "view",
      "type": "function",
      "constant": true
    },
    {
      "inputs": [
        {
          "internalType": "uint256",
          "name": "",
          "type": "uint256"
        }
      ],
      "name": "lots",
      "outputs": [
        {
          "internalType": "uint256",
          "name": "lotId",
          "type": "uint256"
        },
        {
          "internalType": "string",
          "name": "nomMedicament",
          "type": "string"
        },
        {
          "internalType": "string",
          "name": "substanceActive",
          "type": "string"
        },
        {
          "internalType": "string",
          "name": "forme",
          "type": "string"
        },
        {
          "internalType": "string",
          "name": "dateFabrication",
          "type": "string"
        },
        {
          "internalType": "string",
          "name": "datePeremption",
          "type": "string"
        },
        {
          "internalType": "string",
          "name": "nomFabricant",
          "type": "string"
        },
        {
          "internalType": "string",
          "name": "paysOrigine",
          "type": "string"
        },
        {
          "internalType": "string",
          "name": "amm",
          "type": "string"
        },
        {
          "components": [
            {
              "internalType": "int8",
              "name": "temperatureMax",
              "type": "int8"
            },
            {
              "internalType": "int8",
              "name": "temperatureMin",
              "type": "int8"
            },
            {
              "internalType": "uint8",
              "name": "humiditeMax",
              "type": "uint8"
            },
            {
              "internalType": "uint8",
              "name": "humiditeMin",
              "type": "uint8"
            }
          ],
          "internalType": "struct Medecin.Conservation",
          "name": "conditionsConservation",
          "type": "tuple"
        },
        {
          "internalType": "uint256",
          "name": "timestamp",
          "type": "uint256"
        }
      ],
      "stateMutability": "view",
      "type": "function",
      "constant": true
    },
    {
      "inputs": [
        {
          "internalType": "string",
          "name": "",
          "type": "string"
        }
      ],
      "name": "medicaments",
      "outputs": [
        {
          "internalType": "string",
          "name": "medicamentId",
          "type": "string"
        },
        {
          "internalType": "uint256",
          "name": "lotId",
          "type": "uint256"
        },
        {
          "internalType": "bool",
          "name": "sold",
          "type": "bool"
        },
        {
          "internalType": "uint256",
          "name": "timestampCreation",
          "type": "uint256"
        }
      ],
      "stateMutability": "view",
      "type": "function",
      "constant": true
    },
    {
      "inputs": [],
      "name": "nextLotId",
      "outputs": [
        {
          "internalType": "uint256",
          "name": "",
          "type": "uint256"
        }
      ],
      "stateMutability": "view",
      "type": "function",
      "constant": true
    },
    {
      "inputs": [
        {
          "components": [
            {
              "internalType": "string",
              "name": "nomMedicament",
              "type": "string"
            },
            {
              "internalType": "string",
              "name": "substanceActive",
              "type": "string"
            },
            {
              "internalType": "string",
              "name": "forme",
              "type": "string"
            },
            {
              "internalType": "string",
              "name": "dateFabrication",
              "type": "string"
            },
            {
              "internalType": "string",
              "name": "datePeremption",
              "type": "string"
            },
            {
              "internalType": "string",
              "name": "nomFabricant",
              "type": "string"
            },
            {
              "internalType": "string",
              "name": "paysOrigine",
              "type": "string"
            },
            {
              "internalType": "string",
              "name": "amm",
              "type": "string"
            }
          ],
          "internalType": "struct Medecin.LotDetails",
          "name": "_lotDetails",
          "type": "tuple"
        },
        {
          "components": [
            {
              "internalType": "int8",
              "name": "temperatureMax",
              "type": "int8"
            },
            {
              "internalType": "int8",
              "name": "temperatureMin",
              "type": "int8"
            },
            {
              "internalType": "uint8",
              "name": "humiditeMax",
              "type": "uint8"
            },
            {
              "internalType": "uint8",
              "name": "humiditeMin",
              "type": "uint8"
            }
          ],
          "internalType": "struct Medecin.Conservation",
          "name": "_conservation",
          "type": "tuple"
        },
        {
          "components": [
            {
              "internalType": "string",
              "name": "nom",
              "type": "string"
            },
            {
              "internalType": "string",
              "name": "origine",
              "type": "string"
            },
            {
              "internalType": "string",
              "name": "fournisseur",
              "type": "string"
            },
            {
              "internalType": "string",
              "name": "degrePurete",
              "type": "string"
            },
            {
              "internalType": "string",
              "name": "quantiteParUnite",
              "type": "string"
            },
            {
              "internalType": "string",
              "name": "certificatAnalyse",
              "type": "string"
            },
            {
              "internalType": "string",
              "name": "dateReception",
              "type": "string"
            },
            {
              "internalType": "string",
              "name": "transport",
              "type": "string"
            }
          ],
          "internalType": "struct Medecin.MatierePremiere[]",
          "name": "_matieresPremieresLot",
          "type": "tuple[]"
        }
      ],
      "name": "creerLotMedicament",
      "outputs": [
        {
          "internalType": "uint256",
          "name": "",
          "type": "uint256"
        }
      ],
      "stateMutability": "nonpayable",
      "type": "function"
    },
    {
      "inputs": [
        {
          "internalType": "string[]",
          "name": "_medicamentIds",
          "type": "string[]"
        },
        {
          "internalType": "uint256",
          "name": "_lotId",
          "type": "uint256"
        },
        {
          "components": [
            {
              "internalType": "int8",
              "name": "tempMax",
              "type": "int8"
            },
            {
              "internalType": "int8",
              "name": "tempMin",
              "type": "int8"
            },
            {
              "internalType": "int8",
              "name": "tempAvg",
              "type": "int8"
            },
            {
              "internalType": "uint8",
              "name": "humidMax",
              "type": "uint8"
            },
            {
              "internalType": "uint8",
              "name": "humidMin",
              "type": "uint8"
            },
            {
              "internalType": "uint8",
              "name": "humidAvg",
              "type": "uint8"
            },
            {
              "internalType": "string",
              "name": "x",
              "type": "string"
            },
            {
              "internalType": "string",
              "name": "y",
              "type": "string"
            },
            {
              "internalType": "uint256",
              "name": "timestamp",
              "type": "uint256"
            }
          ],
          "internalType": "struct Medecin.EnvironmentalData",
          "name": "_envData",
          "type": "tuple"
        }
      ],
      "name": "createMedicamentUnits",
      "outputs": [],
      "stateMutability": "nonpayable",
      "type": "function"
    },
    {
      "inputs": [
        {
          "components": [
            {
              "internalType": "string",
              "name": "boxId",
              "type": "string"
            },
            {
              "internalType": "string[]",
              "name": "medicamentIds",
              "type": "string[]"
            }
          ],
          "internalType": "struct Medecin.Box[]",
          "name": "_boxes",
          "type": "tuple[]"
        },
        {
          "internalType": "uint256",
          "name": "_lotId",
          "type": "uint256"
        },
        {
          "components": [
            {
              "internalType": "int8",
              "name": "tempMax",
              "type": "int8"
            },
            {
              "internalType": "int8",
              "name": "tempMin",
              "type": "int8"
            },
            {
              "internalType": "int8",
              "name": "tempAvg",
              "type": "int8"
            },
            {
              "internalType": "uint8",
              "name": "humidMax",
              "type": "uint8"
            },
            {
              "internalType": "uint8",
              "name": "humidMin",
              "type": "uint8"
            },
            {
              "internalType": "uint8",
              "name": "humidAvg",
              "type": "uint8"
            },
            {
              "internalType": "string",
              "name": "x",
              "type": "string"
            },
            {
              "internalType": "string",
              "name": "y",
              "type": "string"
            },
            {
              "internalType": "uint256",
              "name": "timestamp",
              "type": "uint256"
            }
          ],
          "internalType": "struct Medecin.EnvironmentalData",
          "name": "_envData",
          "type": "tuple"
        }
      ],
      "name": "createAndAssignMedicaments",
      "outputs": [],
      "stateMutability": "nonpayable",
      "type": "function"
    },
    {
      "inputs": [
        {
          "internalType": "string",
          "name": "_iotId",
          "type": "string"
        },
        {
          "internalType": "string",
          "name": "_boxId",
          "type": "string"
        }
      ],
      "name": "assignBoxToIoT",
      "outputs": [],
      "stateMutability": "nonpayable",
      "type": "function"
    },
    {
      "inputs": [
        {
          "internalType": "string",
          "name": "_iotId",
          "type": "string"
        },
        {
          "components": [
            {
              "internalType": "int8",
              "name": "tempMax",
              "type": "int8"
            },
            {
              "internalType": "int8",
              "name": "tempMin",
              "type": "int8"
            },
            {
              "internalType": "int8",
              "name": "tempAvg",
              "type": "int8"
            },
            {
              "internalType": "uint8",
              "name": "humidMax",
              "type": "uint8"
            },
            {
              "internalType": "uint8",
              "name": "humidMin",
              "type": "uint8"
            },
            {
              "internalType": "uint8",
              "name": "humidAvg",
              "type": "uint8"
            },
            {
              "internalType": "string",
              "name": "x",
              "type": "string"
            },
            {
              "internalType": "string",
              "name": "y",
              "type": "string"
            },
            {
              "internalType": "uint256",
              "name": "timestamp",
              "type": "uint256"
            }
          ],
          "internalType": "struct Medecin.EnvironmentalData",
          "name": "data",
          "type": "tuple"
        }
      ],
      "name": "recordEnvironmentalData",
      "outputs": [
        {
          "internalType": "bool",
          "name": "",
          "type": "bool"
        }
      ],
      "stateMutability": "nonpayable",
      "type": "function"
    },
    {
      "inputs": [
        {
          "internalType": "string",
          "name": "_iotId",
          "type": "string"
        }
      ],
      "name": "getBoxesForIoT",
      "outputs": [
        {
          "internalType": "string[]",
          "name": "",
          "type": "string[]"
        }
      ],
      "stateMutability": "view",
      "type": "function",
      "constant": true
    },
    {
      "inputs": [
        {
          "internalType": "string",
          "name": "_medicamentId",
          "type": "string"
        }
      ],
      "name": "getEnvironmentalHistory",
      "outputs": [
        {
          "components": [
            {
              "internalType": "int8",
              "name": "tempMax",
              "type": "int8"
            },
            {
              "internalType": "int8",
              "name": "tempMin",
              "type": "int8"
            },
            {
              "internalType": "int8",
              "name": "tempAvg",
              "type": "int8"
            },
            {
              "internalType": "uint8",
              "name": "humidMax",
              "type": "uint8"
            },
            {
              "internalType": "uint8",
              "name": "humidMin",
              "type": "uint8"
            },
            {
              "internalType": "uint8",
              "name": "humidAvg",
              "type": "uint8"
            },
            {
              "internalType": "string",
              "name": "x",
              "type": "string"
            },
            {
              "internalType": "string",
              "name": "y",
              "type": "string"
            },
            {
              "internalType": "uint256",
              "name": "timestamp",
              "type": "uint256"
            }
          ],
          "internalType": "struct Medecin.EnvironmentalData[]",
          "name": "",
          "type": "tuple[]"
        }
      ],
      "stateMutability": "view",
      "type": "function",
      "constant": true
    },
    {
      "inputs": [
        {
          "internalType": "string",
          "name": "_medicamentId",
          "type": "string"
        }
      ],
      "name": "getProductInfo",
      "outputs": [
        {
          "components": [
            {
              "internalType": "string",
              "name": "id",
              "type": "string"
            },
            {
              "internalType": "string",
              "name": "name",
              "type": "string"
            },
            {
              "internalType": "string",
              "name": "manufacturer",
              "type": "string"
            },
            {
              "internalType": "string",
              "name": "manufactureDate",
              "type": "string"
            },
            {
              "internalType": "string",
              "name": "expiryDate",
              "type": "string"
            },
            {
              "internalType": "string",
              "name": "batchNumber",
              "type": "string"
            },
            {
              "internalType": "string",
              "name": "substanceActive",
              "type": "string"
            },
            {
              "internalType": "string",
              "name": "forme",
              "type": "string"
            },
            {
              "internalType": "string",
              "name": "paysOrigine",
              "type": "string"
            },
            {
              "internalType": "string",
              "name": "amm",
              "type": "string"
            },
            {
              "components": [
                {
                  "internalType": "int8",
                  "name": "temperatureMax",
                  "type": "int8"
                },
                {
                  "internalType": "int8",
                  "name": "temperatureMin",
                  "type": "int8"
                },
                {
                  "internalType": "uint8",
                  "name": "humiditeMax",
                  "type": "uint8"
                },
                {
                  "internalType": "uint8",
                  "name": "humiditeMin",
                  "type": "uint8"
                }
              ],
              "internalType": "struct Medecin.Conservation",
              "name": "conditionsConservation",
              "type": "tuple"
            },
            {
              "components": [
                {
                  "internalType": "int8",
                  "name": "tempMax",
                  "type": "int8"
                },
                {
                  "internalType": "int8",
                  "name": "tempMin",
                  "type": "int8"
                },
                {
                  "internalType": "int8",
                  "name": "tempAvg",
                  "type": "int8"
                },
                {
                  "internalType": "uint8",
                  "name": "humidMax",
                  "type": "uint8"
                },
                {
                  "internalType": "uint8",
                  "name": "humidMin",
                  "type": "uint8"
                },
                {
                  "internalType": "uint8",
                  "name": "humidAvg",
                  "type": "uint8"
                },
                {
                  "internalType": "string",
                  "name": "x",
                  "type": "string"
                },
                {
                  "internalType": "string",
                  "name": "y",
                  "type": "string"
                },
                {
                  "internalType": "uint256",
                  "name": "timestamp",
                  "type": "uint256"
                }
              ],
              "internalType": "struct Medecin.EnvironmentalData",
              "name": "latestConditions",
              "type": "tuple"
            },
            {
              "internalType": "bool",
              "name": "sold",
              "type": "bool"
            }
          ],
          "internalType": "struct Medecin.ProductInfo",
          "name": "",
          "type": "tuple"
        }
      ],
      "stateMutability": "view",
      "type": "function",
      "constant": true
    },
    {
      "inputs": [
        {
          "internalType": "string",
          "name": "_medicamentId",
          "type": "string"
        }
      ],
      "name": "getRawMaterials",
      "outputs": [
        {
          "components": [
            {
              "internalType": "string",
              "name": "nom",
              "type": "string"
            },
            {
              "internalType": "string",
              "name": "origine",
              "type": "string"
            },
            {
              "internalType": "string",
              "name": "fournisseur",
              "type": "string"
            },
            {
              "internalType": "string",
              "name": "degrePurete",
              "type": "string"
            },
            {
              "internalType": "string",
              "name": "quantiteParUnite",
              "type": "string"
            },
            {
              "internalType": "string",
              "name": "certificatAnalyse",
              "type": "string"
            },
            {
              "internalType": "string",
              "name": "dateReception",
              "type": "string"
            },
            {
              "internalType": "string",
              "name": "transport",
              "type": "string"
            }
          ],
          "internalType": "struct Medecin.MatierePremiere[]",
          "name": "",
          "type": "tuple[]"
        }
      ],
      "stateMutability": "view",
      "type": "function",
      "constant": true
    },
    {
      "inputs": [
        {
          "internalType": "string",
          "name": "_medicamentId",
          "type": "string"
        }
      ],
      "name": "medicamentExists",
      "outputs": [
        {
          "internalType": "bool",
          "name": "",
          "type": "bool"
        }
      ],
      "stateMutability": "view",
      "type": "function",
      "constant": true
    },
    {
      "inputs": [
        {
          "internalType": "string",
          "name": "_medicamentId",
          "type": "string"
        }
      ],
      "name": "markMedicamentAsSold",
      "outputs": [],
      "stateMutability": "nonpayable",
      "type": "function"
    }
  ],
  "bytecode": "0x6080604052600160055534801561001557600080fd5b506159ad80620000266000396000f3fe608060405234801561001057600080fd5b506004361061010b5760003560e01c8063759ab047116100a2578063c193924811610071578063c193924814610317578063c5e4600214610347578063d666f29e14610363578063f1648e8414610381578063f6857845146103bb5761010b565b8063759ab0471461026b57806376bb904f1461029b5780638e488741146102cb5780638fdc19c3146102fb5761010b565b80634fb039ee116100de5780634fb039ee146101a85780635761ee17146101db57806357ba11b01461020b5780636df2d9771461023b5761010b565b8063093f57c2146101105780630a67e63714610140578063157432081461015c5780634e3acf2d14610178575b600080fd5b61012a600480360381019061012591906148c3565b6103eb565b604051610137919061546a565b60405180910390f35b61015a600480360381019061015591906147c5565b6104b1565b005b61017660048036038101906101719190614844565b610705565b005b610192600480360381019061018d9190614a30565b610a79565b60405161019f91906155aa565b60405180910390f35b6101c260048036038101906101bd91906148c3565b610dc0565b6040516101d294939291906154bc565b60405180910390f35b6101f560048036038101906101f091906148c3565b610eab565b604051610202919061544f565b60405180910390f35b610225600480360381019061022091906148c3565b610eec565b6040516102329190615588565b60405180910390f35b610255600480360381019061025091906148c3565b611eda565b60405161026291906153e9565b60405180910390f35b610285600480360381019061028091906148c3565b612145565b604051610292919061540b565b60405180910390f35b6102b560048036038101906102b091906149dc565b61240a565b6040516102c2919061546a565b60405180910390f35b6102e560048036038101906102e091906148c3565b6124e6565b6040516102f2919061542d565b60405180910390f35b61031560048036038101906103109190614904565b612e18565b005b610331600480360381019061032c9190614970565b612f52565b60405161033e919061544f565b60405180910390f35b610361600480360381019061035c91906148c3565b6133cc565b005b61036b61361c565b60405161037891906155aa565b60405180910390f35b61039b60048036038101906103969190614aaf565b613622565b6040516103b29b9a999897969594939291906155c5565b60405180910390f35b6103d560048036038101906103d09190614aaf565b613bba565b6040516103e2919061546a565b60405180910390f35b6003818051602081018201805184825260208301602085012081835280955050505050506000915090508054600181600116156101000203166002900480601f0160208091040260200160405190810160405280929190818152602001828054600181600116156101000203166002900480156104a95780601f1061047e576101008083540402835291602001916104a9565b820191906000526020600020905b81548152906001019060200180831161048c57829003601f168201915b505050505081565b60005b83518110156106ff57600060028583815181106104cd57fe5b60200260200101516040516104e29190615382565b908152602001604051809103902090508482815181106104fe57fe5b602002602001015181600001908051906020019061051d929190613dad565b5083816001018190555060008160030160006101000a81548160ff0219169083151502179055504281600401819055508060020183908060018154018082558091505060019003906000526020600020906004020160009091909190915060008201518160000160006101000a81548160ff021916908360000b60ff16021790555060208201518160000160016101000a81548160ff021916908360000b60ff16021790555060408201518160000160026101000a81548160ff021916908360000b60ff16021790555060608201518160000160036101000a81548160ff021916908360ff16021790555060808201518160000160046101000a81548160ff021916908360ff16021790555060a08201518160000160056101000a81548160ff021916908360ff16021790555060c0820151816001019080519060200190610666929190613dad565b5060e0820151816002019080519060200190610683929190613dad565b506101008201518160030155505084828151811061069d57fe5b60200260200101516040516106b29190615382565b60405180910390207f5c53b353e824876ab4ca986d8e539d2cd5a6a6aa71510449b801419ba5076e6a856040516106e991906155aa565b60405180910390a25080806001019150506104b4565b50505050565b60005b8351811015610a7357610719613e2d565b84828151811061072557fe5b6020026020010151905060608160200151905060005b8151811015610986576000600283838151811061075457fe5b60200260200101516040516107699190615382565b9081526020016040518091039020905082828151811061078557fe5b60200260200101518160000190805190602001906107a4929190613dad565b5086816001018190555060008160030160006101000a81548160ff0219169083151502179055504281600401819055508060020186908060018154018082558091505060019003906000526020600020906004020160009091909190915060008201518160000160006101000a81548160ff021916908360000b60ff16021790555060208201518160000160016101000a81548160ff021916908360000b60ff16021790555060408201518160000160026101000a81548160ff021916908360000b60ff16021790555060608201518160000160036101000a81548160ff021916908360ff16021790555060808201518160000160046101000a81548160ff021916908360ff16021790555060a08201518160000160056101000a81548160ff021916908360ff16021790555060c08201518160010190805190602001906108ed929190613dad565b5060e082015181600201908051906020019061090a929190613dad565b506101008201518160030155505082828151811061092457fe5b60200260200101516040516109399190615382565b60405180910390207f5c53b353e824876ab4ca986d8e539d2cd5a6a6aa71510449b801419ba5076e6a8860405161097091906155aa565b60405180910390a250808060010191505061073b565b5060005b8151811015610a0f57600183600001516040516109a79190615382565b90815260200160405180910390208282815181106109c157fe5b6020026020010151908060018154018082558091505060019003906000526020600020016000909190919091509080519060200190610a01929190613dad565b50808060010191505061098a565b508160000151604051610a229190615382565b60405180910390207fa1e72c2b1494438483667dce1ee48e91fd4c25b91d5efe16e005c9e9eb25214f868351604051610a5c9291906156a8565b60405180910390a250508080600101915050610708565b50505050565b60008060056000815480929190600101919050559050600080600083815260200190815260200160002090508181600001819055508560000151816001019080519060200190610aca929190613dad565b508560200151816002019080519060200190610ae7929190613dad565b508560400151816003019080519060200190610b04929190613dad565b508560600151816004019080519060200190610b21929190613dad565b508560800151816005019080519060200190610b3e929190613dad565b508560a00151816006019080519060200190610b5b929190613dad565b508560c00151816007019080519060200190610b78929190613dad565b508560e00151816008019080519060200190610b95929190613dad565b50848160090160008201518160000160006101000a81548160ff021916908360000b60ff16021790555060208201518160000160016101000a81548160ff021916908360000b60ff16021790555060408201518160000160026101000a81548160ff021916908360ff16021790555060608201518160000160036101000a81548160ff021916908360ff1602179055509050504281600b018190555060005b8451811015610d755781600a01858281518110610c4d57fe5b602002602001015190806001815401808255809150506001900390600052602060002090600802016000909190919091506000820151816000019080519060200190610c9a929190613dad565b506020820151816001019080519060200190610cb7929190613dad565b506040820151816002019080519060200190610cd4929190613dad565b506060820151816003019080519060200190610cf1929190613dad565b506080820151816004019080519060200190610d0e929190613dad565b5060a0820151816005019080519060200190610d2b929190613dad565b5060c0820151816006019080519060200190610d48929190613dad565b5060e0820151816007019080519060200190610d65929190613dad565b5050508080600101915050610c34565b50817f96438370e509f7b4e5442d1afc3c7c3457b7ad2d4b175878c807d48a4d905162876000015142604051610dac92919061548c565b60405180910390a281925050509392505050565b600281805160208101820180518482526020830160208501208183528095505050505050600091509050806000018054600181600116156101000203166002900480601f016020809104026020016040519081016040528092919081815260200182805460018160011615610100020316600290048015610e825780601f10610e5757610100808354040283529160200191610e82565b820191906000526020600020905b815481529060010190602001808311610e6557829003601f168201915b5050505050908060010154908060030160009054906101000a900460ff16908060040154905084565b600080600283604051610ebe9190615382565b9081526020016040518091039020600001805460018160011615610100020316600290049050119050919050565b610ef4613e47565b610efc613ebd565b600283604051610f0c9190615382565b90815260200160405180910390206040518060a0016040529081600082018054600181600116156101000203166002900480601f016020809104026020016040519081016040528092919081815260200182805460018160011615610100020316600290048015610fbe5780601f10610f9357610100808354040283529160200191610fbe565b820191906000526020600020905b815481529060010190602001808311610fa157829003601f168201915b505050505081526020016001820154815260200160028201805480602002602001604051908101604052809291908181526020016000905b828210156112255783829060005260206000209060040201604051806101200160405290816000820160009054906101000a900460000b60000b60000b81526020016000820160019054906101000a900460000b60000b60000b81526020016000820160029054906101000a900460000b60000b60000b81526020016000820160039054906101000a900460ff1660ff1660ff1681526020016000820160049054906101000a900460ff1660ff1660ff1681526020016000820160059054906101000a900460ff1660ff1660ff168152602001600182018054600181600116156101000203166002900480601f0160208091040260200160405190810160405280929190818152602001828054600181600116156101000203166002900480156111615780601f1061113657610100808354040283529160200191611161565b820191906000526020600020905b81548152906001019060200180831161114457829003601f168201915b50505050508152602001600282018054600181600116156101000203166002900480601f0160208091040260200160405190810160405280929190818152602001828054600181600116156101000203166002900480156112035780601f106111d857610100808354040283529160200191611203565b820191906000526020600020905b8154815290600101906020018083116111e657829003601f168201915b5050505050815260200160038201548152505081526020019060010190610ff6565b5050505081526020016003820160009054906101000a900460ff16151515158152602001600482015481525050905060008160000151511161129c576040517f08c379a000000000000000000000000000000000000000000000000000000000815260040161129390615528565b60405180910390fd5b6112a4613eee565b600080836020015181526020019081526020016000206040518061018001604052908160008201548152602001600182018054600181600116156101000203166002900480601f0160208091040260200160405190810160405280929190818152602001828054600181600116156101000203166002900480156113695780601f1061133e57610100808354040283529160200191611369565b820191906000526020600020905b81548152906001019060200180831161134c57829003601f168201915b50505050508152602001600282018054600181600116156101000203166002900480601f01602080910402602001604051908101604052809291908181526020018280546001816001161561010002031660029004801561140b5780601f106113e05761010080835404028352916020019161140b565b820191906000526020600020905b8154815290600101906020018083116113ee57829003601f168201915b50505050508152602001600382018054600181600116156101000203166002900480601f0160208091040260200160405190810160405280929190818152602001828054600181600116156101000203166002900480156114ad5780601f10611482576101008083540402835291602001916114ad565b820191906000526020600020905b81548152906001019060200180831161149057829003601f168201915b50505050508152602001600482018054600181600116156101000203166002900480601f01602080910402602001604051908101604052809291908181526020018280546001816001161561010002031660029004801561154f5780601f106115245761010080835404028352916020019161154f565b820191906000526020600020905b81548152906001019060200180831161153257829003601f168201915b50505050508152602001600582018054600181600116156101000203166002900480601f0160208091040260200160405190810160405280929190818152602001828054600181600116156101000203166002900480156115f15780601f106115c6576101008083540402835291602001916115f1565b820191906000526020600020905b8154815290600101906020018083116115d457829003601f168201915b50505050508152602001600682018054600181600116156101000203166002900480601f0160208091040260200160405190810160405280929190818152602001828054600181600116156101000203166002900480156116935780601f1061166857610100808354040283529160200191611693565b820191906000526020600020905b81548152906001019060200180831161167657829003601f168201915b50505050508152602001600782018054600181600116156101000203166002900480601f0160208091040260200160405190810160405280929190818152602001828054600181600116156101000203166002900480156117355780601f1061170a57610100808354040283529160200191611735565b820191906000526020600020905b81548152906001019060200180831161171857829003601f168201915b50505050508152602001600882018054600181600116156101000203166002900480601f0160208091040260200160405190810160405280929190818152602001828054600181600116156101000203166002900480156117d75780601f106117ac576101008083540402835291602001916117d7565b820191906000526020600020905b8154815290600101906020018083116117ba57829003601f168201915b50505050508152602001600982016040518060800160405290816000820160009054906101000a900460000b60000b60000b81526020016000820160019054906101000a900460000b60000b60000b81526020016000820160029054906101000a900460ff1660ff1660ff1681526020016000820160039054906101000a900460ff1660ff1660ff16815250508152602001600a8201805480602002602001604051908101604052809291908181526020016000905b82821015611dd0578382906000526020600020906008020160405180610100016040529081600082018054600181600116156101000203166002900480601f01602080910402602001604051908101604052809291908181526020018280546001816001161561010002031660029004801561194a5780601f1061191f5761010080835404028352916020019161194a565b820191906000526020600020905b81548152906001019060200180831161192d57829003601f168201915b50505050508152602001600182018054600181600116156101000203166002900480601f0160208091040260200160405190810160405280929190818152602001828054600181600116156101000203166002900480156119ec5780601f106119c1576101008083540402835291602001916119ec565b820191906000526020600020905b8154815290600101906020018083116119cf57829003601f168201915b50505050508152602001600282018054600181600116156101000203166002900480601f016020809104026020016040519081016040528092919081815260200182805460018160011615610100020316600290048015611a8e5780601f10611a6357610100808354040283529160200191611a8e565b820191906000526020600020905b815481529060010190602001808311611a7157829003601f168201915b50505050508152602001600382018054600181600116156101000203166002900480601f016020809104026020016040519081016040528092919081815260200182805460018160011615610100020316600290048015611b305780601f10611b0557610100808354040283529160200191611b30565b820191906000526020600020905b815481529060010190602001808311611b1357829003601f168201915b50505050508152602001600482018054600181600116156101000203166002900480601f016020809104026020016040519081016040528092919081815260200182805460018160011615610100020316600290048015611bd25780601f10611ba757610100808354040283529160200191611bd2565b820191906000526020600020905b815481529060010190602001808311611bb557829003601f168201915b50505050508152602001600582018054600181600116156101000203166002900480601f016020809104026020016040519081016040528092919081815260200182805460018160011615610100020316600290048015611c745780601f10611c4957610100808354040283529160200191611c74565b820191906000526020600020905b815481529060010190602001808311611c5757829003601f168201915b50505050508152602001600682018054600181600116156101000203166002900480601f016020809104026020016040519081016040528092919081815260200182805460018160011615610100020316600290048015611d165780601f10611ceb57610100808354040283529160200191611d16565b820191906000526020600020905b815481529060010190602001808311611cf957829003601f168201915b50505050508152602001600782018054600181600116156101000203166002900480601f016020809104026020016040519081016040528092919081815260200182805460018160011615610100020316600290048015611db85780601f10611d8d57610100808354040283529160200191611db8565b820191906000526020600020905b815481529060010190602001808311611d9b57829003601f168201915b5050505050815250508152602001906001019061188d565b505050508152602001600b820154815250509050611dec613f55565b60008360400151511115611e1d57826040015160018460400151510381518110611e1257fe5b602002602001015190505b604051806101a0016040528084600001518152602001836020015181526020018360c001518152602001836080015181526020018360a001518152602001611e688560200151613c73565b604051602001611e7891906153c7565b604051602081830303815290604052815260200183604001518152602001836060015181526020018360e00151815260200183610100015181526020018361012001518152602001828152602001846060015115158152509350505050919050565b60606000600480549050905060608167ffffffffffffffff81118015611eff57600080fd5b50604051908082528060200260200182016040528015611f3357816020015b6060815260200190600190039081611f1e5790505b5090506000805b838110156120a45785604051602001611f539190615382565b60405160208183030381529060405280519060200120600360048381548110611f7857fe5b90600052602060002001604051611f8f9190615399565b9081526020016040518091039020604051602001611fad9190615399565b6040516020818303038152906040528051906020012014156120975760048181548110611fd657fe5b906000526020600020018054600181600116156101000203166002900480601f0160208091040260200160405190810160405280929190818152602001828054600181600116156101000203166002900480156120745780601f1061204957610100808354040283529160200191612074565b820191906000526020600020905b81548152906001019060200180831161205757829003601f168201915b505050505083838060010194508151811061208b57fe5b60200260200101819052505b8080600101915050611f3a565b5060608167ffffffffffffffff811180156120be57600080fd5b506040519080825280602002602001820160405280156120f257816020015b60608152602001906001900390816120dd5790505b50905060005b828110156121385783818151811061210c57fe5b602002602001015182828151811061212057fe5b602002602001018190525080806001019150506120f8565b5080945050505050919050565b606061215082610eab565b61218f576040517f08c379a000000000000000000000000000000000000000000000000000000000815260040161218690615528565b60405180910390fd5b60028260405161219f9190615382565b9081526020016040518091039020600201805480602002602001604051908101604052809291908181526020016000905b828210156123ff5783829060005260206000209060040201604051806101200160405290816000820160009054906101000a900460000b60000b60000b81526020016000820160019054906101000a900460000b60000b60000b81526020016000820160029054906101000a900460000b60000b60000b81526020016000820160039054906101000a900460ff1660ff1660ff1681526020016000820160049054906101000a900460ff1660ff1660ff1681526020016000820160059054906101000a900460ff1660ff1660ff168152602001600182018054600181600116156101000203166002900480601f01602080910402602001604051908101604052809291908181526020018280546001816001161561010002031660029004801561233b5780601f106123105761010080835404028352916020019161233b565b820191906000526020600020905b81548152906001019060200180831161231e57829003601f168201915b50505050508152602001600282018054600181600116156101000203166002900480601f0160208091040260200160405190810160405280929190818152602001828054600181600116156101000203166002900480156123dd5780601f106123b2576101008083540402835291602001916123dd565b820191906000526020600020905b8154815290600101906020018083116123c057829003601f168201915b50505050508152602001600382015481525050815260200190600101906121d0565b505050509050919050565b600182805160208101820180518482526020830160208501208183528095505050505050818154811061243957fe5b90600052602060002001600091509150508054600181600116156101000203166002900480601f0160208091040260200160405190810160405280929190818152602001828054600181600116156101000203166002900480156124de5780601f106124b3576101008083540402835291602001916124de565b820191906000526020600020905b8154815290600101906020018083116124c157829003601f168201915b505050505081565b60606124f0613ebd565b6002836040516125009190615382565b90815260200160405180910390206040518060a0016040529081600082018054600181600116156101000203166002900480601f0160208091040260200160405190810160405280929190818152602001828054600181600116156101000203166002900480156125b25780601f10612587576101008083540402835291602001916125b2565b820191906000526020600020905b81548152906001019060200180831161259557829003601f168201915b505050505081526020016001820154815260200160028201805480602002602001604051908101604052809291908181526020016000905b828210156128195783829060005260206000209060040201604051806101200160405290816000820160009054906101000a900460000b60000b60000b81526020016000820160019054906101000a900460000b60000b60000b81526020016000820160029054906101000a900460000b60000b60000b81526020016000820160039054906101000a900460ff1660ff1660ff1681526020016000820160049054906101000a900460ff1660ff1660ff1681526020016000820160059054906101000a900460ff1660ff1660ff168152602001600182018054600181600116156101000203166002900480601f0160208091040260200160405190810160405280929190818152602001828054600181600116156101000203166002900480156127555780601f1061272a57610100808354040283529160200191612755565b820191906000526020600020905b81548152906001019060200180831161273857829003601f168201915b50505050508152602001600282018054600181600116156101000203166002900480601f0160208091040260200160405190810160405280929190818152602001828054600181600116156101000203166002900480156127f75780601f106127cc576101008083540402835291602001916127f7565b820191906000526020600020905b8154815290600101906020018083116127da57829003601f168201915b50505050508152602001600382015481525050815260200190600101906125ea565b5050505081526020016003820160009054906101000a900460ff161515151581526020016004820154815250509050600081600001515111612890576040517f08c379a000000000000000000000000000000000000000000000000000000000815260040161288790615528565b60405180910390fd5b60008082602001518152602001908152602001600020600a01805480602002602001604051908101604052809291908181526020016000905b82821015612e0c578382906000526020600020906008020160405180610100016040529081600082018054600181600116156101000203166002900480601f0160208091040260200160405190810160405280929190818152602001828054600181600116156101000203166002900480156129865780601f1061295b57610100808354040283529160200191612986565b820191906000526020600020905b81548152906001019060200180831161296957829003601f168201915b50505050508152602001600182018054600181600116156101000203166002900480601f016020809104026020016040519081016040528092919081815260200182805460018160011615610100020316600290048015612a285780601f106129fd57610100808354040283529160200191612a28565b820191906000526020600020905b815481529060010190602001808311612a0b57829003601f168201915b50505050508152602001600282018054600181600116156101000203166002900480601f016020809104026020016040519081016040528092919081815260200182805460018160011615610100020316600290048015612aca5780601f10612a9f57610100808354040283529160200191612aca565b820191906000526020600020905b815481529060010190602001808311612aad57829003601f168201915b50505050508152602001600382018054600181600116156101000203166002900480601f016020809104026020016040519081016040528092919081815260200182805460018160011615610100020316600290048015612b6c5780601f10612b4157610100808354040283529160200191612b6c565b820191906000526020600020905b815481529060010190602001808311612b4f57829003601f168201915b50505050508152602001600482018054600181600116156101000203166002900480601f016020809104026020016040519081016040528092919081815260200182805460018160011615610100020316600290048015612c0e5780601f10612be357610100808354040283529160200191612c0e565b820191906000526020600020905b815481529060010190602001808311612bf157829003601f168201915b50505050508152602001600582018054600181600116156101000203166002900480601f016020809104026020016040519081016040528092919081815260200182805460018160011615610100020316600290048015612cb05780601f10612c8557610100808354040283529160200191612cb0565b820191906000526020600020905b815481529060010190602001808311612c9357829003601f168201915b50505050508152602001600682018054600181600116156101000203166002900480601f016020809104026020016040519081016040528092919081815260200182805460018160011615610100020316600290048015612d525780601f10612d2757610100808354040283529160200191612d52565b820191906000526020600020905b815481529060010190602001808311612d3557829003601f168201915b50505050508152602001600782018054600181600116156101000203166002900480601f016020809104026020016040519081016040528092919081815260200182805460018160011615610100020316600290048015612df45780601f10612dc957610100808354040283529160200191612df4565b820191906000526020600020905b815481529060010190602001808311612dd757829003601f168201915b505050505081525050815260200190600101906128c9565b50505050915050919050565b6000600182604051612e2a9190615382565b90815260200160405180910390208054905011612e7c576040517f08c379a0000000000000000000000000000000000000000000000000000000008152600401612e7390615568565b60405180910390fd5b81600382604051612e8d9190615382565b90815260200160405180910390209080519060200190612eae929190613dad565b50600481908060018154018082558091505060019003906000526020600020016000909190919091509080519060200190612eea929190613dad565b5080604051612ef99190615382565b604051809103902082604051612f0f9190615382565b60405180910390207f0ab384bd9af73a999403581cc0be12c0fa08107934cb0d843e7e83d68391f4f542604051612f4691906155aa565b60405180910390a35050565b600080600090506000805b6004805490508110156133af5785604051602001612f7b9190615382565b60405160208183030381529060405280519060200120600360048381548110612fa057fe5b90600052602060002001604051612fb79190615399565b9081526020016040518091039020604051602001612fd59190615399565b6040516020818303038152906040528051906020012014156133a25760019150606060016004838154811061300657fe5b9060005260206000200160405161301d9190615399565b9081526020016040518091039020805480602002602001604051908101604052809291908181526020016000905b82821015613107578382906000526020600020018054600181600116156101000203166002900480601f0160208091040260200160405190810160405280929190818152602001828054600181600116156101000203166002900480156130f35780601f106130c8576101008083540402835291602001916130f3565b820191906000526020600020905b8154815290600101906020018083116130d657829003601f168201915b50505050508152602001906001019061304b565b50505050905060005b815181101561339f5761313582828151811061312857fe5b6020026020010151610eab565b1561339257613142613f55565b604051806101200160405280896000015160000b8152602001896020015160000b8152602001896040015160000b8152602001896060015160ff168152602001896080015160ff1681526020018960a0015160ff1681526020018960c0015181526020018960e00151815260200142815250905060028383815181106131c457fe5b60200260200101516040516131d99190615382565b908152602001604051809103902060020181908060018154018082558091505060019003906000526020600020906004020160009091909190915060008201518160000160006101000a81548160ff021916908360000b60ff16021790555060208201518160000160016101000a81548160ff021916908360000b60ff16021790555060408201518160000160026101000a81548160ff021916908360000b60ff16021790555060608201518160000160036101000a81548160ff021916908360ff16021790555060808201518160000160046101000a81548160ff021916908360ff16021790555060a08201518160000160056101000a81548160ff021916908360ff16021790555060c08201518160010190805190602001906132ff929190613dad565b5060e082015181600201908051906020019061331c929190613dad565b5061010082015181600301555050886040516133389190615382565b60405180910390207fe69d4538710a729c4a1b4c16fc7d5e3d3606120fec0719e907cf70cc3942c15a84848151811061336d57fe5b60200260200101514260405161338492919061548c565b60405180910390a260019550505b8080600101915050613110565b50505b8080600101915050612f5d565b50806133c0576000925050506133c6565b81925050505b92915050565b6133d581610eab565b613414576040517f08c379a000000000000000000000000000000000000000000000000000000000815260040161340b90615508565b60405180910390fd5b60006002826040516134269190615382565b908152602001604051809103902090508060030160009054906101000a900460ff1615613488576040517f08c379a000000000000000000000000000000000000000000000000000000000815260040161347f90615548565b60405180910390fd5b60018160030160006101000a81548160ff02191690831515021790555060005b600480549050811015613617576000600482815481106134c457fe5b90600052602060002001905060006001826040516134e291906153b0565b9081526020016040518091039020905060005b818054905081101561360757856040516020016135129190615382565b6040516020818303038152906040528051906020012082828154811061353457fe5b9060005260206000200160405160200161354e9190615399565b6040516020818303038152906040528051906020012014156135fa5760018280549050038110156135cd578160018380549050038154811061358c57fe5b906000526020600020018282815481106135a257fe5b9060005260206000200190805460018160011615610100020316600290046135cb929190613fb0565b505b818054806135d757fe5b6001900381819060005260206000200160006135f39190614037565b9055613607565b80806001019150506134f5565b50505080806001019150506134a8565b505050565b60055481565b6000602052806000526040600020600091509050806000015490806001018054600181600116156101000203166002900480601f0160208091040260200160405190810160405280929190818152602001828054600181600116156101000203166002900480156136d45780601f106136a9576101008083540402835291602001916136d4565b820191906000526020600020905b8154815290600101906020018083116136b757829003601f168201915b505050505090806002018054600181600116156101000203166002900480601f0160208091040260200160405190810160405280929190818152602001828054600181600116156101000203166002900480156137725780601f1061374757610100808354040283529160200191613772565b820191906000526020600020905b81548152906001019060200180831161375557829003601f168201915b505050505090806003018054600181600116156101000203166002900480601f0160208091040260200160405190810160405280929190818152602001828054600181600116156101000203166002900480156138105780601f106137e557610100808354040283529160200191613810565b820191906000526020600020905b8154815290600101906020018083116137f357829003601f168201915b505050505090806004018054600181600116156101000203166002900480601f0160208091040260200160405190810160405280929190818152602001828054600181600116156101000203166002900480156138ae5780601f10613883576101008083540402835291602001916138ae565b820191906000526020600020905b81548152906001019060200180831161389157829003601f168201915b505050505090806005018054600181600116156101000203166002900480601f01602080910402602001604051908101604052809291908181526020018280546001816001161561010002031660029004801561394c5780601f106139215761010080835404028352916020019161394c565b820191906000526020600020905b81548152906001019060200180831161392f57829003601f168201915b505050505090806006018054600181600116156101000203166002900480601f0160208091040260200160405190810160405280929190818152602001828054600181600116156101000203166002900480156139ea5780601f106139bf576101008083540402835291602001916139ea565b820191906000526020600020905b8154815290600101906020018083116139cd57829003601f168201915b505050505090806007018054600181600116156101000203166002900480601f016020809104026020016040519081016040528092919081815260200182805460018160011615610100020316600290048015613a885780601f10613a5d57610100808354040283529160200191613a88565b820191906000526020600020905b815481529060010190602001808311613a6b57829003601f168201915b505050505090806008018054600181600116156101000203166002900480601f016020809104026020016040519081016040528092919081815260200182805460018160011615610100020316600290048015613b265780601f10613afb57610100808354040283529160200191613b26565b820191906000526020600020905b815481529060010190602001808311613b0957829003601f168201915b505050505090806009016040518060800160405290816000820160009054906101000a900460000b60000b60000b81526020016000820160019054906101000a900460000b60000b60000b81526020016000820160029054906101000a900460ff1660ff1660ff1681526020016000820160039054906101000a900460ff1660ff1660ff16815250509080600b015490508b565b60048181548110613bc757fe5b906000526020600020016000915090508054600181600116156101000203166002900480601f016020809104026020016040519081016040528092919081815260200182805460018160011615610100020316600290048015613c6b5780601f10613c4057610100808354040283529160200191613c6b565b820191906000526020600020905b815481529060010190602001808311613c4e57829003601f168201915b505050505081565b60606000821415613cbb576040518060400160405280600181526020017f30000000000000000000000000000000000000000000000000000000000000008152509050613da8565b600082905060005b60008214613ce5578080600101915050600a8281613cdd57fe5b049150613cc3565b60608167ffffffffffffffff81118015613cfe57600080fd5b506040519080825280601f01601f191660200182016040528015613d315781602001600182028036833780820191505090505b5090505b60008514613da157600182039150600a8581613d4d57fe5b0660300160f81b818381518110613d6057fe5b60200101907effffffffffffffffffffffffffffffffffffffffffffffffffffffffffffff1916908160001a905350600a8581613d9957fe5b049450613d35565b8093505050505b919050565b828054600181600116156101000203166002900490600052602060002090601f016020900481019282601f10613dee57805160ff1916838001178555613e1c565b82800160010185558215613e1c579182015b82811115613e1b578251825591602001919060010190613e00565b5b509050613e29919061407f565b5090565b604051806040016040528060608152602001606081525090565b604051806101a0016040528060608152602001606081526020016060815260200160608152602001606081526020016060815260200160608152602001606081526020016060815260200160608152602001613ea161409c565b8152602001613eae613f55565b81526020016000151581525090565b6040518060a00160405280606081526020016000815260200160608152602001600015158152602001600081525090565b604051806101800160405280600081526020016060815260200160608152602001606081526020016060815260200160608152602001606081526020016060815260200160608152602001613f4161409c565b815260200160608152602001600081525090565b6040518061012001604052806000800b81526020016000800b81526020016000800b8152602001600060ff168152602001600060ff168152602001600060ff1681526020016060815260200160608152602001600081525090565b828054600181600116156101000203166002900490600052602060002090601f016020900481019282601f10613fe95780548555614026565b8280016001018555821561402657600052602060002091601f016020900482015b8281111561402557825482559160010191906001019061400a565b5b509050614033919061407f565b5090565b50805460018160011615610100020316600290046000825580601f1061405d575061407c565b601f01602090049060005260206000209081019061407b919061407f565b5b50565b5b80821115614098576000816000905550600101614080565b5090565b60405180608001604052806000800b81526020016000800b8152602001600060ff168152602001600060ff1681525090565b600082601f8301126140df57600080fd5b81356140f26140ed826156fe565b6156d1565b9150818183526020840193506020810190508360005b83811015614138578135860161411e888261423f565b845260208401935060208301925050600181019050614108565b5050505092915050565b600082601f83011261415357600080fd5b813561416661416182615726565b6156d1565b9150818183526020840193506020810190508360005b838110156141ac57813586016141928882614293565b84526020840193506020830192505060018101905061417c565b5050505092915050565b600082601f8301126141c757600080fd5b81356141da6141d58261574e565b6156d1565b9150818183526020840193506020810190508360005b8381101561422057813586016142068882614615565b8452602084019350602083019250506001810190506141f0565b5050505092915050565b60008135905061423981615932565b92915050565b600082601f83011261425057600080fd5b813561426361425e82615776565b6156d1565b9150808252602083016020830185838301111561427f57600080fd5b61428a8382846158df565b50505092915050565b6000604082840312156142a557600080fd5b6142af60406156d1565b9050600082013567ffffffffffffffff8111156142cb57600080fd5b6142d78482850161423f565b600083015250602082013567ffffffffffffffff8111156142f757600080fd5b614303848285016140ce565b60208301525092915050565b60006080828403121561432157600080fd5b61432b60806156d1565b9050600061433b8482850161422a565b600083015250602061434f8482850161422a565b6020830152506040614363848285016147b0565b6040830152506060614377848285016147b0565b60608301525092915050565b6000610120828403121561439657600080fd5b6143a16101206156d1565b905060006143b18482850161422a565b60008301525060206143c58482850161422a565b60208301525060406143d98482850161422a565b60408301525060606143ed848285016147b0565b6060830152506080614401848285016147b0565b60808301525060a0614415848285016147b0565b60a08301525060c082013567ffffffffffffffff81111561443557600080fd5b6144418482850161423f565b60c08301525060e082013567ffffffffffffffff81111561446157600080fd5b61446d8482850161423f565b60e0830152506101006144828482850161479b565b6101008301525092915050565b600061010082840312156144a257600080fd5b6144ad6101006156d1565b9050600082013567ffffffffffffffff8111156144c957600080fd5b6144d58482850161423f565b600083015250602082013567ffffffffffffffff8111156144f557600080fd5b6145018482850161423f565b602083015250604082013567ffffffffffffffff81111561452157600080fd5b61452d8482850161423f565b604083015250606082013567ffffffffffffffff81111561454d57600080fd5b6145598482850161423f565b606083015250608082013567ffffffffffffffff81111561457957600080fd5b6145858482850161423f565b60808301525060a082013567ffffffffffffffff8111156145a557600080fd5b6145b18482850161423f565b60a08301525060c082013567ffffffffffffffff8111156145d157600080fd5b6145dd8482850161423f565b60c08301525060e082013567ffffffffffffffff8111156145fd57600080fd5b6146098482850161423f565b60e08301525092915050565b6000610100828403121561462857600080fd5b6146336101006156d1565b9050600082013567ffffffffffffffff81111561464f57600080fd5b61465b8482850161423f565b600083015250602082013567ffffffffffffffff81111561467b57600080fd5b6146878482850161423f565b602083015250604082013567ffffffffffffffff8111156146a757600080fd5b6146b38482850161423f565b604083015250606082013567ffffffffffffffff8111156146d357600080fd5b6146df8482850161423f565b606083015250608082013567ffffffffffffffff8111156146ff57600080fd5b61470b8482850161423f565b60808301525060a082013567ffffffffffffffff81111561472b57600080fd5b6147378482850161423f565b60a08301525060c082013567ffffffffffffffff81111561475757600080fd5b6147638482850161423f565b60c08301525060e082013567ffffffffffffffff81111561478357600080fd5b61478f8482850161423f565b60e08301525092915050565b6000813590506147aa81615949565b92915050565b6000813590506147bf81615960565b92915050565b6000806000606084860312156147da57600080fd5b600084013567ffffffffffffffff8111156147f457600080fd5b614800868287016140ce565b93505060206148118682870161479b565b925050604084013567ffffffffffffffff81111561482e57600080fd5b61483a86828701614383565b9150509250925092565b60008060006060848603121561485957600080fd5b600084013567ffffffffffffffff81111561487357600080fd5b61487f86828701614142565b93505060206148908682870161479b565b925050604084013567ffffffffffffffff8111156148ad57600080fd5b6148b986828701614383565b9150509250925092565b6000602082840312156148d557600080fd5b600082013567ffffffffffffffff8111156148ef57600080fd5b6148fb8482850161423f565b91505092915050565b6000806040838503121561491757600080fd5b600083013567ffffffffffffffff81111561493157600080fd5b61493d8582860161423f565b925050602083013567ffffffffffffffff81111561495a57600080fd5b6149668582860161423f565b9150509250929050565b6000806040838503121561498357600080fd5b600083013567ffffffffffffffff81111561499d57600080fd5b6149a98582860161423f565b925050602083013567ffffffffffffffff8111156149c657600080fd5b6149d285828601614383565b9150509250929050565b600080604083850312156149ef57600080fd5b600083013567ffffffffffffffff811115614a0957600080fd5b614a158582860161423f565b9250506020614a268582860161479b565b9150509250929050565b600080600060c08486031215614a4557600080fd5b600084013567ffffffffffffffff811115614a5f57600080fd5b614a6b8682870161448f565b9350506020614a7c8682870161430f565b92505060a084013567ffffffffffffffff811115614a9957600080fd5b614aa5868287016141b6565b9150509250925092565b600060208284031215614ac157600080fd5b6000614acf8482850161479b565b91505092915050565b6000614ae48383614ca0565b905092915050565b6000614af88383615049565b905092915050565b6000614b0c8383615115565b905092915050565b6000614b1f826157fc565b614b29818561584f565b935083602082028501614b3b856157a2565b8060005b85811015614b775784840389528151614b588582614ad8565b9450614b6383615828565b925060208a01995050600181019050614b3f565b50829750879550505050505092915050565b6000614b9482615807565b614b9e8185615860565b935083602082028501614bb0856157b2565b8060005b85811015614bec5784840389528151614bcd8582614aec565b9450614bd883615835565b925060208a01995050600181019050614bb4565b50829750879550505050505092915050565b6000614c0982615812565b614c138185615871565b935083602082028501614c25856157c2565b8060005b85811015614c615784840389528151614c428582614b00565b9450614c4d83615842565b925060208a01995050600181019050614c29565b50829750879550505050505092915050565b614c7c816158af565b82525050565b614c8b816158af565b82525050565b614c9a816158bb565b82525050565b6000614cab8261581d565b614cb58185615882565b9350614cc58185602086016158ee565b614cce81615921565b840191505092915050565b6000614ce48261581d565b614cee8185615893565b9350614cfe8185602086016158ee565b614d0781615921565b840191505092915050565b6000614d1d8261581d565b614d2781856158a4565b9350614d378185602086016158ee565b80840191505092915050565b600081546001811660008114614d605760018114614d8557614dc9565b607f6002830416614d7181876158a4565b955060ff1983168652808601935050614dc9565b60028204614d9381876158a4565b9550614d9e856157e7565b60005b82811015614dc057815481890152600182019150602081019050614da1565b82880195505050505b505092915050565b600081546001811660008114614dee5760018114614e1357614e57565b607f6002830416614dff81876158a4565b955060ff1983168652808601935050614e57565b60028204614e2181876158a4565b9550614e2c856157d2565b60005b82811015614e4e57815481890152600182019150602081019050614e2f565b82880195505050505b505092915050565b6000614e6c601983615893565b91507f4d65646963616d656e7420646f6573206e6f74206578697374000000000000006000830152602082019050919050565b6000614eac601583615893565b91507f4d65646963616d656e74206e6f6e2074726f75766500000000000000000000006000830152602082019050919050565b6000614eec6004836158a4565b91507f4c4f542d000000000000000000000000000000000000000000000000000000006000830152600482019050919050565b6000614f2c601783615893565b91507f4d65646963616d656e7420616c726561647920736f6c640000000000000000006000830152602082019050919050565b6000614f6c600f83615893565b91507f426f78206e6f6e2074726f7576656500000000000000000000000000000000006000830152602082019050919050565b608082016000820151614fb56000850182614c91565b506020820151614fc86020850182614c91565b506040820151614fdb6040850182615373565b506060820151614fee6060850182615373565b50505050565b60808201600082015161500a6000850182614c91565b50602082015161501d6020850182614c91565b5060408201516150306040850182615373565b5060608201516150436060850182615373565b50505050565b6000610120830160008301516150626000860182614c91565b5060208301516150756020860182614c91565b5060408301516150886040860182614c91565b50606083015161509b6060860182615373565b5060808301516150ae6080860182615373565b5060a08301516150c160a0860182615373565b5060c083015184820360c08601526150d98282614ca0565b91505060e083015184820360e08601526150f38282614ca0565b91505061010083015161510a610100860182615355565b508091505092915050565b60006101008301600083015184820360008601526151338282614ca0565b9150506020830151848203602086015261514d8282614ca0565b915050604083015184820360408601526151678282614ca0565b915050606083015184820360608601526151818282614ca0565b9150506080830151848203608086015261519b8282614ca0565b91505060a083015184820360a08601526151b58282614ca0565b91505060c083015184820360c08601526151cf8282614ca0565b91505060e083015184820360e08601526151e98282614ca0565b9150508091505092915050565b60006102008301600083015184820360008601526152148282614ca0565b9150506020830151848203602086015261522e8282614ca0565b915050604083015184820360408601526152488282614ca0565b915050606083015184820360608601526152628282614ca0565b9150506080830151848203608086015261527c8282614ca0565b91505060a083015184820360a08601526152968282614ca0565b91505060c083015184820360c08601526152b08282614ca0565b91505060e083015184820360e08601526152ca8282614ca0565b9150506101008301518482036101008601526152e68282614ca0565b9150506101208301518482036101208601526153028282614ca0565b915050610140830151615319610140860182614f9f565b506101608301518482036101c08601526153338282615049565b91505061018083015161534a6101e0860182614c73565b508091505092915050565b61535e816158c8565b82525050565b61536d816158c8565b82525050565b61537c816158d2565b82525050565b600061538e8284614d12565b915081905092915050565b60006153a58284614dd1565b915081905092915050565b60006153bc8284614d43565b915081905092915050565b60006153d282614edf565b91506153de8284614d12565b915081905092915050565b600060208201905081810360008301526154038184614b14565b905092915050565b600060208201905081810360008301526154258184614b89565b905092915050565b600060208201905081810360008301526154478184614bfe565b905092915050565b60006020820190506154646000830184614c82565b92915050565b600060208201905081810360008301526154848184614cd9565b905092915050565b600060408201905081810360008301526154a68185614cd9565b90506154b56020830184615364565b9392505050565b600060808201905081810360008301526154d68187614cd9565b90506154e56020830186615364565b6154f26040830185614c82565b6154ff6060830184615364565b95945050505050565b6000602082019050818103600083015261552181614e5f565b9050919050565b6000602082019050818103600083015261554181614e9f565b9050919050565b6000602082019050818103600083015261556181614f1f565b9050919050565b6000602082019050818103600083015261558181614f5f565b9050919050565b600060208201905081810360008301526155a281846151f6565b905092915050565b60006020820190506155bf6000830184615364565b92915050565b60006101c0820190506155db600083018e615364565b81810360208301526155ed818d614cd9565b90508181036040830152615601818c614cd9565b90508181036060830152615615818b614cd9565b90508181036080830152615629818a614cd9565b905081810360a083015261563d8189614cd9565b905081810360c08301526156518188614cd9565b905081810360e08301526156658187614cd9565b905081810361010083015261567a8186614cd9565b905061568a610120830185614ff4565b6156986101a0830184615364565b9c9b505050505050505050505050565b60006040820190506156bd6000830185615364565b6156ca6020830184615364565b9392505050565b6000604051905081810181811067ffffffffffffffff821117156156f457600080fd5b8060405250919050565b600067ffffffffffffffff82111561571557600080fd5b602082029050602081019050919050565b600067ffffffffffffffff82111561573d57600080fd5b602082029050602081019050919050565b600067ffffffffffffffff82111561576557600080fd5b602082029050602081019050919050565b600067ffffffffffffffff82111561578d57600080fd5b601f19601f8301169050602081019050919050565b6000819050602082019050919050565b6000819050602082019050919050565b6000819050602082019050919050565b60008190508160005260206000209050919050565b60008190508160005260206000209050919050565b600081519050919050565b600081519050919050565b600081519050919050565b600081519050919050565b6000602082019050919050565b6000602082019050919050565b6000602082019050919050565b600082825260208201905092915050565b600082825260208201905092915050565b600082825260208201905092915050565b600082825260208201905092915050565b600082825260208201905092915050565b600081905092915050565b60008115159050919050565b60008160000b9050919050565b6000819050919050565b600060ff82169050919050565b82818337600083830152505050565b60005b8381101561590c5780820151818401526020810190506158f1565b8381111561591b576000848401525b50505050565b6000601f19601f8301169050919050565b61593b816158bb565b811461594657600080fd5b50565b615952816158c8565b811461595d57600080fd5b50565b615969816158d2565b811461597457600080fd5b5056fea2646970667358221220f4f3a4ca1ddf537193b2428e81a3d8d0783ecf1440e228795341b39ad86f3f1064736f6c63430007010033",
  "immutableReferences": {},
  "source": "// SPDX-License-Identifier: MIT\r\npragma solidity >=0.7.0 <0.9.0;\r\npragma experimental ABIEncoderV2;\r\n\r\ncontract Medecin {\r\n    // Structures de donnes\r\n    struct Conservation {\r\n        int8 temperatureMax;\r\n        int8 temperatureMin;\r\n        uint8 humiditeMax;\r\n        uint8 humiditeMin;\r\n    }\r\n\r\n    struct MatierePremiere {\r\n        string nom;\r\n        string origine;\r\n        string fournisseur;\r\n        string degrePurete;\r\n        string quantiteParUnite;\r\n        string certificatAnalyse;\r\n        string dateReception;\r\n        string transport;\r\n    }\r\n\r\n\r\n    struct ProductInfo {\r\n        string id;\r\n        string name;\r\n        string manufacturer;\r\n        string manufactureDate;\r\n        string expiryDate;\r\n        string batchNumber;\r\n        string substanceActive;\r\n        string forme;\r\n        string paysOrigine;\r\n        string amm;\r\n        Conservation conditionsConservation;\r\n        EnvironmentalData latestConditions;\r\n        bool sold;\r\n    }\r\n\r\n    // only modify things related to removing ConditionsActuelles struct\r\n    struct EnvironmentalData {\r\n        int8 tempMax;\r\n        int8 tempMin;\r\n        int8 tempAvg;\r\n        uint8 humidMax;\r\n        uint8 humidMin;\r\n        uint8 humidAvg;\r\n        string x;\r\n        string y;\r\n        uint256 timestamp;\r\n    }\r\n\r\n    struct LotDetails {\r\n        string nomMedicament;\r\n        string substanceActive;\r\n        string forme;\r\n        string dateFabrication;\r\n        string datePeremption;\r\n        string nomFabricant;\r\n        string paysOrigine;\r\n        string amm;\r\n    }\r\n\r\n    struct LotMedicament {\r\n        uint256 lotId;\r\n        string nomMedicament;\r\n        string substanceActive;\r\n        string forme;\r\n        string dateFabrication;\r\n        string datePeremption;\r\n        string nomFabricant;\r\n        string paysOrigine;\r\n        string amm;\r\n        Conservation conditionsConservation;\r\n        MatierePremiere[] matieresPremieresLot;\r\n        uint256 timestamp;\r\n    }\r\n\r\n    struct UniteMedicament {\r\n        string medicamentId;\r\n        uint256 lotId;\r\n        EnvironmentalData[] environmentalHistory;\r\n        bool sold;\r\n        uint256 timestampCreation;\r\n    }\r\n\r\n    struct Box {\r\n        string boxId;\r\n        string[] medicamentIds;\r\n    }\r\n\r\n    // Storage\r\n    mapping(uint256 => LotMedicament) public lots;\r\n    mapping(string => string[]) public boxToMedicaments; // Maps boxId to array of medicamentIds\r\n    mapping(string => UniteMedicament) public medicaments; // Maps medicamentId to its data\r\n    mapping(string => string) public boxToIot; // Maps boxId to its assigned iotId\r\n    string[] public allBoxIds; // List of all boxIds for IoT lookups\r\n    uint256 public nextLotId = 1;\r\n\r\n    // Events\r\n    event LotCree(uint256 indexed lotId, string nomMedicament, uint256 timestamp);\r\n    event BoxAssembled(string indexed boxId, uint256 lotId, uint256 medicamentCount);\r\n    event MedicamentCreated(string indexed medicamentId, uint256 lotId);\r\n    event EnvironmentalDataRecorded(string indexed iotId, string medicamentId, uint256 timestamp);\r\n    event BoxAssignedToIoT(string indexed iotId, string indexed boxId, uint256 timestamp);\r\n\r\n    // Fonction d'ajout d'un lot avec structs regroups\r\n    function creerLotMedicament(\r\n        LotDetails memory _lotDetails,\r\n        Conservation memory _conservation,\r\n        MatierePremiere[] memory _matieresPremieresLot\r\n    ) public returns (uint256) {\r\n        uint256 lotId = nextLotId++;\r\n        \r\n        LotMedicament storage lot = lots[lotId];\r\n        lot.lotId = lotId;\r\n        lot.nomMedicament = _lotDetails.nomMedicament;\r\n        lot.substanceActive = _lotDetails.substanceActive;\r\n        lot.forme = _lotDetails.forme;\r\n        lot.dateFabrication = _lotDetails.dateFabrication;\r\n        lot.datePeremption = _lotDetails.datePeremption;\r\n        lot.nomFabricant = _lotDetails.nomFabricant;\r\n        lot.paysOrigine = _lotDetails.paysOrigine;\r\n        lot.amm = _lotDetails.amm;\r\n        lot.conditionsConservation = _conservation;\r\n        lot.timestamp = block.timestamp;\r\n\r\n        for (uint i = 0; i < _matieresPremieresLot.length; i++) {\r\n            lot.matieresPremieresLot.push(_matieresPremieresLot[i]);\r\n        }\r\n\r\n        emit LotCree(lotId, _lotDetails.nomMedicament, block.timestamp);\r\n        return lotId;\r\n    }\r\n\r\n    // Create multiple medicine units with same initial EnvironmentalData\r\n    function createMedicamentUnits(\r\n        string[] memory _medicamentIds,\r\n        uint256 _lotId,\r\n        EnvironmentalData memory _envData\r\n    ) public {\r\n        for (uint i = 0; i < _medicamentIds.length; i++) {\r\n            UniteMedicament storage med = medicaments[_medicamentIds[i]];\r\n            med.medicamentId = _medicamentIds[i];\r\n            med.lotId = _lotId;\r\n            med.sold = false;\r\n            med.timestampCreation = block.timestamp;\r\n            med.environmentalHistory.push(_envData);\r\n            emit MedicamentCreated(_medicamentIds[i], _lotId);\r\n        }\r\n    }\r\n\r\n    function createAndAssignMedicaments(\r\n        Box[] memory _boxes,\r\n        uint256 _lotId,\r\n        EnvironmentalData memory _envData\r\n    ) public {\r\n        for (uint b = 0; b < _boxes.length; b++) {\r\n            Box memory currentBox = _boxes[b];\r\n            string[] memory medIds = currentBox.medicamentIds;\r\n            // 1. Create units\r\n            for (uint i = 0; i < medIds.length; i++) {\r\n                UniteMedicament storage med = medicaments[medIds[i]];\r\n                med.medicamentId = medIds[i];\r\n                med.lotId = _lotId;\r\n                med.sold = false;\r\n                med.timestampCreation = block.timestamp;\r\n                med.environmentalHistory.push(_envData);\r\n                emit MedicamentCreated(medIds[i], _lotId);\r\n            }\r\n            // 2. Box them\r\n            for (uint i = 0; i < medIds.length; i++) {\r\n                boxToMedicaments[currentBox.boxId].push(medIds[i]);\r\n            }\r\n            emit BoxAssembled(currentBox.boxId, _lotId, medIds.length);\r\n        }\r\n    }\r\n\r\n    //zineb IOT\r\n\r\n    // Assign or reassign a box to an IoT device\r\n    function assignBoxToIoT(string memory _iotId, string memory _boxId) public {\r\n        require(boxToMedicaments[_boxId].length > 0, \"Box non trouvee\");\r\n        boxToIot[_boxId] = _iotId;\r\n        allBoxIds.push(_boxId);\r\n        emit BoxAssignedToIoT(_iotId, _boxId, block.timestamp);\r\n    }\r\n\r\n\r\n    function recordEnvironmentalData(\r\n    string memory _iotId,\r\n    EnvironmentalData memory data\r\n) public returns (bool) {\r\n    bool dataRecorded = false;\r\n    bool hasBox = false;\r\n    for (uint i = 0; i < allBoxIds.length; i++) {\r\n        if (keccak256(abi.encodePacked(boxToIot[allBoxIds[i]])) \r\n            == keccak256(abi.encodePacked(_iotId))) {\r\n            hasBox = true;\r\n            string[] memory meds = boxToMedicaments[allBoxIds[i]];\r\n            for (uint j = 0; j < meds.length; j++) {\r\n                if (medicamentExists(meds[j])) {\r\n                    EnvironmentalData memory newData = EnvironmentalData({\r\n                        tempMax: data.tempMax,\r\n                        tempMin: data.tempMin,\r\n                        tempAvg: data.tempAvg,\r\n                        humidMax: data.humidMax,\r\n                        humidMin: data.humidMin,\r\n                        humidAvg: data.humidAvg,\r\n                        x: data.x,\r\n                        y: data.y,\r\n                        timestamp: block.timestamp\r\n                    });\r\n                    medicaments[meds[j]].environmentalHistory.push(newData);\r\n                    emit EnvironmentalDataRecorded(_iotId, meds[j], block.timestamp);\r\n                    dataRecorded = true;\r\n                }\r\n            }\r\n        }\r\n    }\r\n    if (!hasBox) return false;\r\n    return dataRecorded;\r\n}\r\n\r\n\r\n    // ask the contract Which boxes does this IoT device currently manage\r\n    function getBoxesForIoT(string memory _iotId) public view returns (string[] memory) {\r\n        uint total = allBoxIds.length;\r\n        string[] memory temp = new string[](total);\r\n        uint count = 0;\r\n        for (uint i = 0; i < total; i++) {\r\n            if (keccak256(abi.encodePacked(boxToIot[allBoxIds[i]])) \r\n                == keccak256(abi.encodePacked(_iotId))) {\r\n                temp[count++] = allBoxIds[i];\r\n            }\r\n        }\r\n        string[] memory result = new string[](count);\r\n        for (uint i = 0; i < count; i++) {\r\n            result[i] = temp[i];\r\n        }\r\n        return result;\r\n    }\r\n\r\n    //Amina\r\n    // Get environmental history for a medicament\r\n    function getEnvironmentalHistory(string memory _medicamentId)\r\n        public view returns (EnvironmentalData[] memory)\r\n    {\r\n        require(medicamentExists(_medicamentId), \"Medicament non trouve\");\r\n        return medicaments[_medicamentId].environmentalHistory;\r\n    }\r\n\r\n    function getProductInfo(string memory _medicamentId) public view returns (ProductInfo memory) {\r\n        UniteMedicament memory unit = medicaments[_medicamentId];\r\n        require(bytes(unit.medicamentId).length > 0, \"Medicament non trouve\");\r\n        LotMedicament memory lot = lots[unit.lotId];\r\n        EnvironmentalData memory latest;\r\n        if (unit.environmentalHistory.length > 0) {\r\n            latest = unit.environmentalHistory[unit.environmentalHistory.length - 1];\r\n        }\r\n        return ProductInfo(\r\n            unit.medicamentId,\r\n            lot.nomMedicament,\r\n            lot.nomFabricant,\r\n            lot.dateFabrication,\r\n            lot.datePeremption,\r\n            string(abi.encodePacked(\"LOT-\", uintToString(unit.lotId))),\r\n            lot.substanceActive,\r\n            lot.forme,\r\n            lot.paysOrigine,\r\n            lot.amm,\r\n            lot.conditionsConservation,\r\n            latest,\r\n            unit.sold\r\n        );\r\n    }\r\n\r\n    function getRawMaterials(string memory _medicamentId)\r\n        public view returns (MatierePremiere[] memory)\r\n    {\r\n        UniteMedicament memory unit = medicaments[_medicamentId];\r\n        require(bytes(unit.medicamentId).length > 0, \"Medicament non trouve\");\r\n        return lots[unit.lotId].matieresPremieresLot;\r\n    }\r\n\r\n    // Helper to check if a medicament exists\r\nfunction medicamentExists(string memory _medicamentId) public view returns (bool) {\r\n    return bytes(medicaments[_medicamentId].medicamentId).length > 0;\r\n}\r\n\r\nfunction uintToString(uint _value) internal pure returns (string memory) {\r\n        if (_value == 0) {\r\n            return \"0\";\r\n        }\r\n        uint temp = _value;\r\n        uint digits;\r\n        while (temp != 0) {\r\n            digits++;\r\n            temp /= 10;\r\n        }\r\n        bytes memory buffer = new bytes(digits);\r\n        while (_value != 0) {\r\n            digits -= 1;\r\n            buffer[digits] = bytes1(uint8(48 + _value % 10));\r\n            _value /= 10;\r\n        }\r\n        return string(buffer);\r\n    }\r\n\r\n    function markMedicamentAsSold(string memory _medicamentId) public {\r\n        require(medicamentExists(_medicamentId), \"Medicament does not exist\");\r\n        UniteMedicament storage med = medicaments[_medicamentId];\r\n        require(!med.sold, \"Medicament already sold\");\r\n        \r\n        // Mark as sold\r\n        med.sold = true;\r\n        \r\n        // Remove from all boxes\r\n        for (uint i = 0; i < allBoxIds.length; i++) {\r\n            string storage boxId = allBoxIds[i];\r\n            string[] storage medIds = boxToMedicaments[boxId];\r\n            \r\n            // Find and remove the medicament ID\r\n            for (uint j = 0; j < medIds.length; j++) {\r\n                if (keccak256(abi.encodePacked(medIds[j])) == keccak256(abi.encodePacked(_medicamentId))) {\r\n                    // Swap and pop to remove element\r\n                    if (j < medIds.length - 1) {\r\n                        medIds[j] = medIds[medIds.length - 1];\r\n                    }\r\n                    medIds.pop();\r\n                    break; // Exit inner loop after removal\r\n                }\r\n            }\r\n        }\r\n    }\r\n}",
  "sourcePath": "C:\\Users\\Administrateur\\Desktop\\PFA2\\medProject1\\contracts\\Medecin.sol",
  "compiler": {
    "name": "solc",
    "version": "0.7.1+commit.f4a555be.Emscripten.clang"
  },
  "schemaVersion": "3.4.16",
  "updatedAt": "2025-05-06T16:11:29.715Z",
  "networkType": "ethereum",
  "devdoc": {
    "kind": "dev",
    "methods": {},
    "version": 1
  },
  "userdoc": {
    "kind": "user",
    "methods": {},
    "version": 1
  }
}